:100000000C942A000C9447000C9447000C94470071
:100010000C9447000C9447000C9447000C944C102F
:100020000C947F100C94B2100C94F00E0C94230FCF
:100030000C9447000C9447000C9447000C94470024
:100040000C9447000C9447000C9447000C94470014
:100050000C94470011241FBECFE5D8E0DEBFCDBF12
:1000600012E0A0E6B0E0E6E1FBE202C005900D92EE
:10007000A436B107D9F712E0A4E6B2E001C01D92A0
:10008000AA38B107E1F70E9417070C9489150C9460
:100090000000EF92FF920F931F937B018C0120E0F1
:1000A00030E040E05FE40E94F50388238CF0C80153
:1000B000B70120E030E040E05FE40E94C1010E940F
:1000C00055049B01AC01205030404040504806C0D0
:1000D000C801B7010E9455049B01AC01B901CA01D6
:1000E0001F910F91FF90EF900895A0E0B0E0EBE733
:1000F000F0E00C948B12DC012B01FA019C91923000
:1001000008F439C1EB018881823008F433C194309E
:1001100069F4843009F02FC111969C91119789815F
:10012000981709F428C1A0E4B1E025C1843009F48E
:1001300021C18230A9F4923009F01DC19A01AD01AC
:1001400088E0EA010990AE01E90109929E0181501F
:10015000C1F7E201898111969C918923818308C1AD
:10016000923009F407C112962D903C901397EB0141
:100170008A819B811496AD90BD90CD90DC901797AD
:10018000EC80FD800E811F819101281B390BB90184
:1001900037FF04C066277727621B730B6032710537
:1001A0000CF061C0121613066CF537014801062EDB
:1001B00004C096948794779467940A94D2F721E0C8
:1001C00030E040E050E004C0220F331F441F551FB1
:1001D0006A95D2F721503040404050402E213F21B7
:1001E00040235123211531054105510521F021E01E
:1001F00030E040E050E079018A01E628F72808293C
:1002000019293CC0232BD1F1260E371E350146019A
:10021000062E04C096948794779467940A94D2F734
:1002200021E030E040E050E004C0220F331F441FC3
:10023000551F6A95D2F721503040404050402A2146
:100240003B214C215D21211531054105510521F04E
:1002500021E030E040E050E059016A01A628B728CB
:10026000C828D9280BC0821593052CF01C01AA249C
:10027000BB24650103C0EE24FF24870111969C91E5
:10028000D20111968C91981709F445C0992339F041
:10029000A80197012A193B094C095D0906C0A6016E
:1002A00095012E193F09400B510B57FD08C01182D3
:1002B0003382228224833583468357831DC081E0A5
:1002C00081833382228288279927DC01821B930B4A
:1002D000A40BB50B84839583A683B7830DC0220F2F
:1002E000331F441F551F24833583468357838281E0
:1002F000938101979383828324813581468157813D
:10030000DA01C9010197A109B1098F5F9F4FAF4F72
:10031000BF4328F30BC0918333822282EA0CFB1C7B
:100320000C1D1D1DE482F5820683178383E0808304
:10033000248135814681578157FF1AC0C901AA27F8
:1003400097FDA095BA2F81709070A070B0705695EF
:10035000479537952795822B932BA42BB52B848318
:100360009583A683B7838281938101969383828349
:10037000DF0101C0D201CD01CDB7DEB7E2E10C94BF
:10038000A712A0E2B0E0E7ECF1E00C9497126983C9
:100390007A838B839C832D833E834F835887E9E048
:1003A000EE2EF12CEC0EFD1ECE010196B7010E943F
:1003B00046068E010F5E1F4FCE010596B8010E94C2
:1003C00046068A8991E089278A8BC701B801AE0168
:1003D000475E5F4F0E9475000E947105A096E6E09F
:1003E0000C94B312A0E2B0E0E8EFF1E00C949712A5
:1003F00069837A838B839C832D833E834F835887C5
:10040000F9E0EF2EF12CEC0EFD1ECE010196B701A6
:100410000E9446068E010F5E1F4FCE010596B80161
:100420000E944606C701B801AE01475E5F4F0E94B9
:1004300075000E947105A096E6E00C94B312A0E24C
:10044000B0E0E5E2F2E00C948B1269837A838B834F
:100450009C832D833E834F835887CE010196BE0136
:10046000675F7F4F0E944606CE010596BE016F5E14
:100470007F4F0E9446069985923088F089898230A4
:10048000C8F0943019F4823051F404C0843029F457
:10049000923081F480E491E0C6C0923049F420E0CB
:1004A0009A858A89981321E02A87CE010996BBC0D4
:1004B000823049F420E09A858A89981321E02A8BBA
:1004C000CE014196B0C02D843E844F8458886D88FB
:1004D0007E888F88988CEE24FF248701AA24BB2471
:1004E000650140E050E060E070E0E0E0F0E0C10174
:1004F00081709070892BE9F0E60CF71C081D191D1E
:100500009A01AB012A0D3B1D4C1D5D1D80E090E062
:10051000A0E0B0E0E614F7040805190520F481E036
:1005200090E0A0E0B0E0BA01A901480F591F6A1F8E
:100530007B1FAA0CBB1CCC1CDD1C97FE08C081E0F5
:1005400090E0A0E0B0E0A82AB92ACA2ADB2A3196B6
:10055000E032F10549F0660C771C881C991C569412
:10056000479437942794C3CFFA85EA892B893C892D
:100570008B859C85280F391F2E5F3F4F17C0CA01FE
:1005800081709070892B61F016950795F794E79428
:1005900080E090E0A0E0B0E8E82AF92A0A2B1B2BC3
:1005A00076956795579547952F5F3F4F77FDE7CF36
:1005B0000CC0440F551F661F771F17FD4160EE0CDE
:1005C000FF1C001F111F21503040403090E05907A0
:1005D00090E0690790E4790760F32B8F3C8FDB0193
:1005E000CA018F779070A070B07080349105A1051A
:1005F000B10561F447FD0AC0E114F10401051105DC
:1006000029F0405C5F4F6F4F7F4F40781A8EFE1786
:1006100011F081E08A8F4D8F5E8F6F8F78A383E01A
:10062000898FCE0149960E947105A096E2E10C9453
:10063000A712A8E1B0E0EFE1F3E00C949312698314
:100640007A838B839C832D833E834F835887B9E0C5
:10065000EB2EF12CEC0EFD1ECE010196B7010E948F
:1006600046068E010F5E1F4FCE010596B8010E940F
:1006700046062985223008F47EC03989323010F4CC
:10068000B8017CC08A859A8989278A87243011F02D
:10069000223031F4231709F06EC060E471E06EC0BF
:1006A000343039F41D861E861F86188A1C861B86E8
:1006B00004C0323021F484E08987B7015FC02B8504
:1006C0003C858B899C89281B390B3C872B87ED84C3
:1006D000FE840F851889AD88BE88CF88D88CEA142F
:1006E000FB040C051D0540F4EE0CFF1C001F111F40
:1006F000215030403C872B8720E030E040E050E044
:1007000080E090E0A0E0B0E460E070E0EA14FB0478
:100710000C051D0540F0282B392B4A2B5B2BEA18C2
:10072000FB080C091D09B695A79597958795EE0CC2
:10073000FF1C001F111F6F5F7F4F6F31710531F775
:10074000DA01C9018F779070A070B0708034910584
:10075000A105B10561F427FD0AC0E114F10401050A
:10076000110529F0205C3F4F4F4F5F4F20782D87B8
:100770003E874F87588BBE01675F7F4FCB010E943A
:1007800071056896EAE00C94AF12A8E1B0E0EBECDA
:10079000F3E00C94971269837A838B839C832D8377
:1007A0003E834F83588789E0E82EF12CEC0EFD1E26
:1007B000CE010196B7010E9446068E010F5E1F4FC3
:1007C000CE010596B8010E9446068985823040F028
:1007D0008989823028F0C701B8010E94BE0601C095
:1007E0008FEF6896E6E00C94B312A8E1B0E0EBEF6F
:1007F000F3E00C94971269837A838B839C832D8317
:100800003E834F83588789E0E82EF12CEC0EFD1EC5
:10081000CE010196B7010E9446068E010F5E1F4F62
:10082000CE010596B8010E9446068985823040F0C7
:100830008989823028F0C701B8010E94BE0601C034
:100840008FEF6896E6E00C94B312A8E1B0E0EBE21B
:10085000F4E00C94971269837A838B839C832D83B5
:100860003E834F83588789E0E82EF12CEC0EFD1E65
:10087000CE010196B7010E9446068E010F5E1F4F02
:10088000CE010596B8010E9446068985823040F067
:100890008989823028F0C701B8010E94BE0601C0D4
:1008A00081E06896E6E00C94B312ACE0B0E0EBE5D2
:1008B000F4E00C949B1269837A838B839C83CE0132
:1008C0000196BE016B5F7F4F0E9446068D8182308C
:1008D00061F1823050F1843021F48E81882351F10E
:1008E0002EC02F81388537FD20C06E812F31310514
:1008F0001CF06623F9F023C08EE190E0821B930B7D
:1009000029853A854B855C8504C056954795379572
:1009100027958A95D2F76623B1F05095409530958A
:1009200021953F4F4F4F5F4F0EC020E030E040E039
:1009300050E009C02FEF3FEF4FEF5FE704C020E02A
:1009400030E040E050E8B901CA012C96E2E00C9496
:10095000B712A8E0B0E0EFEAF4E00C9493127B0148
:100960008C01611571058105910519F482E0898377
:1009700060C083E089838EE1C82ED12CDC82CB82DB
:10098000ED82FE820F831887C801B7010E942205FD
:10099000FC013197F7FF3BC0222733272E1B3F0B6B
:1009A00057016801022E04C0D694C794B794A79447
:1009B0000A94D2F740E050E060E070E081E090E01F
:1009C000A0E0B0E004C0880F991FAA1FBB1F2A95A2
:1009D000D2F70197A109B1098E219F21A023B1234C
:1009E0000097A105B10521F041E050E060E070E022
:1009F0004A295B296C297D294D835E836F83788723
:100A00008EE190E08E1B9F0B9C838B8312C03097EE
:100A100081F00E2E04C0EE0CFF1C001F111F0A9463
:100A2000D2F7ED82FE820F831887CE1ADF0ADC82AE
:100A3000CB821A82CE0101960E9471052896EAE0C7
:100A40000C94AF12EF92FF920F931F937B018C01D6
:100A500080E0E81680E0F80681E0080780E01807EB
:100A600088F48FEFE816F1040105110531F028F044
:100A700088E090E0A0E0B0E017C080E090E0A0E067
:100A8000B0E012C080E0E81680E0F80680E00807D9
:100A900081E0180728F088E190E0A0E0B0E004C011
:100AA00080E190E0A0E0B0E020E230E040E050E003
:100AB000281B390B4A0B5B0B04C016950795F7945E
:100AC000E7948A95D2F7F701E85BFE4F8081281BF7
:100AD000310941095109C9011F910F91FF90EF9010
:100AE0000895DF92EF92FF920F931F93FC01E48031
:100AF000F58006811781D1808081823048F480E0C2
:100B000090E0A0E1B0E0E82AF92A0A2B1B2BA5C04F
:100B1000843009F49FC0823021F4EE24FF24870141
:100B200005C0E114F1040105110519F4E0E0F0E05D
:100B300096C0628173819FEF623879070CF05BC0C9
:100B400022E83FEF261B370B2A3131052CF020E03D
:100B500030E040E050E02AC0B801A701022E04C0F6
:100B600076956795579547950A94D2F781E090E07E
:100B7000A0E0B0E004C0880F991FAA1FBB1F2A95F0
:100B8000D2F70197A109B1098E219F21A023B1239A
:100B90000097A105B10521F081E090E0A0E0B0E070
:100BA0009A01AB01282B392B4A2B5B2BDA01C901A7
:100BB0008F779070A070B07080349105A105B10559
:100BC00039F427FF09C0205C3F4F4F4F5F4F04C0EF
:100BD000215C3F4F4F4F5F4FE0E0F0E02030A0E05E
:100BE0003A07A0E04A07A0E45A0710F0E1E0F0E07D
:100BF00079018A0127C06038710564F5FB01E1586D
:100C0000FF4FD801C7018F779070A070B07080340B
:100C10009105A105B10539F4E7FE0DC080E490E02F
:100C2000A0E0B0E004C08FE390E0A0E0B0E0E80E08
:100C3000F91E0A1F1B1F17FF05C016950795F7948D
:100C4000E794319687E016950795F794E7948A958F
:100C5000D1F705C0EE24FF248701EFEFF0E06E2FFF
:100C6000679566276795902F9F77D794DD24D79453
:100C70008E2F8695492F462B582F5D29B701CA0123
:100C80001F910F91FF90EF90DF900895FC01DB0121
:100C9000408151812281622F6F7770E0221F2227CD
:100CA000221F9381892F880F822B282F30E0991FD4
:100CB0009927991F11969C93119721153105A9F534
:100CC000411551056105710511F482E037C082E8D4
:100CD0009FEF13969C938E9312979A01AB0167E056
:100CE000220F331F441F551F6A95D1F783E08C9361
:100CF0000DC0220F331F441F551F12968D919C91DA
:100D00001397019713969C938E931297203080E04F
:100D1000380780E0480780E4580758F314962D936D
:100D20003D934D935C93179708952F3F310579F4C8
:100D3000411551056105710519F484E08C930895FE
:100D400064FF03C081E08C9312C01C9210C02F5727
:100D5000304013963C932E93129783E08C9387E058
:100D6000440F551F661F771F8A95D1F7706414963C
:100D70004D935D936D937C93179708951F93DC01BA
:100D8000FB019C91923008F447C08081823008F4C6
:100D900043C0943051F411961C91843099F58181AF
:100DA000682F70E0611B71093FC0843021F09230E0
:100DB00031F48230B9F18181882389F12DC01196F7
:100DC0001C9111978230F1F081811817D9F4129695
:100DD0002D913C911397828193818217930794F010
:100DE00028173907BCF014968D919D910D90BC91F8
:100DF000A02D2481358146815781281739074A075C
:100E00005B0718F4112341F00AC082179307A40767
:100E1000B50740F4112319F061E070E005C06FEFF1
:100E20007FEF02C060E070E0CB011F910895DF9377
:100E3000CF93CDB7DEB7CF54D0400FB6F894DEBF16
:100E40000FBECDBFCE018F962D969FAF8EAF2D9743
:100E5000E8E4F2E02F96FFAFEEAF2F97FCE160964B
:100E6000FFAF60972F96EEADFFAD2F9700802F96C6
:100E70008EAD9FAD2F9701962F969FAF8EAF2F9778
:100E80002D96EEADFFAD2D9700822D968EAD9FADC8
:100E90002D9701962D969FAF8EAF2D9760969FADA3
:100EA0006097915060969FAF60976096EFAD6097A6
:100EB000EE23C1F6CE018F960E945D090E941809AB
:100EC00080E690E00E94D71200D0EDB7FEB73196D1
:100ED0008AE790E0918380830E94C2120F900F9066
:100EE00081E062E30E941F0A80E090E0AAEFB4E490
:100EF0008FA398A7A9A7BAA76FA178A589A59AA536
:100F000020E030E04AE753E40E941F02DC01CB01FD
:100F10008BA39CA3ADA3BEA36BA17CA18DA19EA11D
:100F200020E030E040E85FE30E94250488232CF4B1
:100F300081E090E09AA389A33FC06BA17CA18DA121
:100F40009EA120E03FEF4FE757E40E94C50318162B
:100F50004CF56FA178A589A59AA520E030E040E284
:100F600051E40E941F02DC01CB01BC01CD010E94B3
:100F70004900DC01CB019AA389A30FC089E190E06D
:100F800098A38F8F8F8D98A10197F1F798A38F8FDA
:100F900089A19AA101979AA389A389A19AA10097EF
:100FA00069F714C06BA17CA18DA19EA10E9449008C
:100FB000DC01CB019AA389A389A19AA19E8F8D8F71
:100FC0008D8D9E8D0197F1F79E8F8D8F00D0EDB79F
:100FD000FEB7319684E990E0918380830E94C2122B
:100FE0000F900F9082E06BE40E941F0A80E090E077
:100FF000AAEFB4E4898F9A8FAB8FBC8F698D7A8DFD
:101000008B8D9C8D20E030E04AE753E40E941F0264
:10101000DC01CB018D8B9E8BAF8BB88F6D897E8968
:101020008F89988D20E030E040E85FE30E9425043E
:1010300088232CF481E090E09C8B8B8B3FC06D89E2
:101040007E898F89988D20E03FEF4FE757E40E941B
:10105000C50318164CF5698D7A8D8B8D9C8D20E01B
:1010600030E040E251E40E941F02DC01CB01BC01F0
:10107000CD010E944900DC01CB019C8B8B8B0FC002
:1010800089E190E09A8B898B89899A890197F1F798
:101090009A8B898B8B899C8901979C8B8B8B8B89F5
:1010A0009C89009769F714C06D897E898F89988D16
:1010B0000E944900DC01CB019C8B8B8B8B899C8926
:1010C000988B8F878F8598890197F1F7988B8F87F9
:1010D0008FEA90E00E94D71280E064E60E941F0A27
:1010E00080E090E0AAEFB4E48B879C87AD87BE8751
:1010F0006B857C858D859E8520E030E04AE753E452
:101100000E941F02DC01CB018F839887A987BA87D1
:101110006F81788589859A8520E030E040E85FE33B
:101120000E94250488232CF481E090E09E838D8327
:101130003FC06F81788589859A8520E03FEF4FE732
:1011400057E40E94C50318164CF56B857C858D8588
:101150009E8520E030E040E251E40E941F02DC0165
:10116000CB01BC01CD010E944900DC01CB019E8373
:101170008D830FC089E190E09C838B838B819C8160
:101180000197F1F79C838B838D819E8101979E83CC
:101190008D838D819E81009769F714C06F8178855A
:1011A00089859A850E944900DC01CB019E838D834D
:1011B0008D819E819A83898389819A810197F1F734
:1011C0009A8389830E94360ADC01CB018BA79CA7F6
:1011D000ADA7BEA700D000D000D0EDB7FEB73196C6
:1011E0008EEB90E0918380838BA59CA5ADA5BEA5D9
:1011F00082839383A483B5830E94C2128DB79EB766
:1012000006960FB6F8949EBF0FBE8DBF6AE077EDCD
:1012100083EA9CE30E94200B80E090E0C15BDF4FFB
:101220000FB6F894DEBF0FBECDBFCF91DF9108950A
:10123000DF93CF93CDB7DEB7E7E2F0E01082E6E2CE
:10124000F0E083E88083CF91DF910895DF93CF931F
:101250000F92CDB7DEB78983898187708983A7E232
:10126000B0E0E7E2F0E08081807E8C93A7E2B0E01E
:10127000E7E2F0E090818981892B8C93A6E2B0E0CF
:10128000E6E2F0E0808180648C93E6E2F0E0808129
:10129000882F90E0807190700097B9F3A6E2B0E0DB
:1012A000E6E2F0E0808180618C93E4E2F0E080810E
:1012B00091810F90CF91DF910895DF93CF9300D06C
:1012C000CDB7DEB79A83898382E060E041E00E9477
:1012D000B20B82E061E041E00E94B20B82E060E08C
:1012E00040E00E949D0C82E061E040E00E949D0C85
:1012F000E981FA8180819181A281B3818093640226
:1013000090936502A0936602B0936702E981FA8127
:1013100084819581A681B781809368029093690248
:10132000A0936A02B0936B02E981FA81808591856E
:10133000A285B38580936C0290936D02A0936E0298
:10134000B0936F02E981FA8184859585A685B7857A
:101350008093700290937102A0937202B093730213
:10136000E981FA8180899189A289B3898093740285
:1013700090937502A0937602B0937702E981FA8187
:1013800084899589A689B789809378029093790298
:10139000A0937A02B0937B02E981FA81808D918DCE
:1013A000A28DB38D80937C0290937D02A0937E02E8
:1013B000B0937F020F900F90CF91DF910895DF934C
:1013C000CF9300D00F92CDB7DEB789838981282FC4
:1013D00030E03B832A838A819B8181309105A1F093
:1013E0002A813B8122303105D1F08A819B8100978F
:1013F00001F582E060E040E00E949D0C82E061E047
:1014000040E00E949D0C15C082E060E041E00E9437
:101410009D0C82E061E040E00E949D0C0AC082E0E9
:1014200060E040E00E949D0C82E061E041E00E94AB
:101430009D0C0F900F900F90CF91DF910895DF9347
:10144000CF9300D0CDB7DEB789836A8389810E94AC
:10145000DF098A81853610F084E68A838A810E94BA
:1014600011100F900F90CF91DF910895DF93CF93DC
:10147000CDB7DEB764970FB6F894DEBF0FBECDBF11
:1014800080E00E94D40ADC01CB018D879E87AF8764
:10149000B88B81E00E94D40ADC01CB0189879A874E
:1014A000AB87BC876D857E858F85988929853A8530
:1014B0004B855C850E94F201DC01CB01BC01CD01B2
:1014C00020E030E040E050E40E941903DC01CB0151
:1014D0008D839E83AF83B88780917C0290917D023B
:1014E000A0917E02B0917F02BC01CD012D813E8191
:1014F0004F8158850E94C50318164CF480E090E097
:10150000A0E0B0E0898B9A8BAB8BBC8B3EC0209166
:1015100070023091710240917202509173026D819C
:101520007E818F8198850E941903DC01CB01209177
:1015300068023091690240916A0250916B02BC01CD
:10154000CD010E941F02DC01CB0189839A83AB830A
:10155000BC838091680290916902A0916A02B09167
:101560006B02BC01CD0129813A814B815C810E94D3
:101570002504882314F40E94A70B89819A81AB81EA
:10158000BC81898B9A8BAB8BBC8B89899A89AB89FF
:10159000BC89BC01CD0164960FB6F894DEBF0FBEC6
:1015A000CDBFCF91DF910895DF93CF93CDB7DEB755
:1015B0002B970FB6F894DEBF0FBECDBF8B878B8500
:1015C0000E9426099A87898789859A852FEF33E0BB
:1015D000B9010E945512CB019C01C901880F991FC6
:1015E000880F991F820F931FCC01A0E0B0E0BC01CF
:1015F000CD010E94A904DC01CB018D839E83AF83C2
:10160000B8876D817E818F81988520E030E44CE938
:1016100055E40E941903DC01CB0189839A83AB83D3
:10162000BC8389819A81AB81BC81BC01CD012B96A1
:101630000FB6F894DEBF0FBECDBFCF91DF910895F6
:10164000EF92FF920F931F93DF93CF93CDB7DEB747
:101650002C970FB6F894DEBF0FBECDBF69877A878F
:101660008B879C87209168023091690240916A02C1
:1016700050916B0269857A858B859C850E94190340
:10168000DC01CB0120917002309171024091720215
:1016900050917302BC01CD010E941F02DC01CB01FD
:1016A0008D839E83AF83B88780E00E94D40A7B013C
:1016B0008C0181E00E94D40A9B01AC01C801B701F2
:1016C0000E94F201DC01CB01BC01CD0120E030E041
:1016D00040E050E40E941903DC01CB0189839A8326
:1016E000AB83BC8369817A818B819C812D813E8112
:1016F0004F8158850E94C50318161CF40E94A70B41
:101700000EC069817A818B819C812D813E814F81C0
:1017100058850E942504882314F40E949C0B2C9663
:101720000FB6F894DEBF0FBECDBFCF91DF911F91F2
:101730000F91FF90EF900895DF93CF93CDB7DEB771
:101740008BED90E00E94D712CF91DF910895DF9347
:10175000CF93CDB7DEB780E191E00E94D712CF9151
:10176000DF910895DF93CF9300D000D00F92CDB7D3
:10177000DEB789836A834B838A81883008F0D5C0BD
:101780008981843008F0D1C08981282F30E03D83E1
:101790002C838C819D818130910509F443C02C817B
:1017A0003D81223031052CF48C819D81009771F0B0
:1017B000BCC02C813D812230310509F45FC08C8191
:1017C0009D818330910509F485C0AFC08B81813044
:1017D000A1F4AAE3B0E0EAE3F0E08081482F8A8137
:1017E000282F30E081E090E0022E02C0880F991F80
:1017F0000A94E2F7842B8C9398C0AAE3B0E0EAE362
:10180000F0E08081482F8A81282F30E081E090E04D
:10181000022E02C0880F991F0A94E2F78095842354
:101820008C9383C08B818130A1F4A7E3B0E0E7E320
:10183000F0E08081482F8A81282F30E081E090E01D
:10184000022E02C0880F991F0A94E2F7842B8C9312
:101850006CC0A7E3B0E0E7E3F0E08081482F8A8125
:10186000282F30E081E090E0022E02C0880F991FFF
:101870000A94E2F7809584238C9357C08B81813042
:10188000A1F4A4E3B0E0E4E3F0E08081482F8A8192
:10189000282F30E081E090E0022E02C0880F991FCF
:1018A0000A94E2F7842B8C9340C0A4E3B0E0E4E315
:1018B000F0E08081482F8A81282F30E081E090E09D
:1018C000022E02C0880F991F0A94E2F780958423A4
:1018D0008C932BC08B818130A1F4A1E3B0E0E1E3D4
:1018E000F0E08081482F8A81282F30E081E090E06D
:1018F000022E02C0880F991F0A94E2F7842B8C9362
:1019000014C0A1E3B0E0E1E3F0E08081482F8A81D8
:10191000282F30E081E090E0022E02C0880F991F4E
:101920000A94E2F7809584238C930F900F900F9088
:101930000F900F90CF91DF910895DF93CF9300D058
:1019400000D00F92CDB7DEB789836A834B838A813B
:10195000883008F0D5C08981843008F0D1C08981F1
:10196000282F30E03D832C838C819D81813091052F
:1019700009F443C02C813D81223031052CF48C8147
:101980009D81009771F0BCC02C813D8122303105D2
:1019900009F45FC08C819D818330910509F485C075
:1019A000AFC08B818130A1F4ABE3B0E0EBE3F0E0BA
:1019B0008081482F8A81282F30E081E090E0022E3C
:1019C00002C0880F991F0A94E2F7842B8C9398C069
:1019D000ABE3B0E0EBE3F0E08081482F8A81282F71
:1019E00030E081E090E0022E02C0880F991F0A9437
:1019F000E2F7809584238C9383C08B818130A1F49E
:101A0000A8E3B0E0E8E3F0E08081482F8A81282F46
:101A100030E081E090E0022E02C0880F991F0A9406
:101A2000E2F7842B8C936CC0A8E3B0E0E8E3F0E02D
:101A30008081482F8A81282F30E081E090E0022EBB
:101A400002C0880F991F0A94E2F7809584238C9333
:101A500057C08B818130A1F4A5E3B0E0E5E3F0E06D
:101A60008081482F8A81282F30E081E090E0022E8B
:101A700002C0880F991F0A94E2F7842B8C9340C010
:101A8000A5E3B0E0E5E3F0E08081482F8A81282FCC
:101A900030E081E090E0022E02C0880F991F0A9486
:101AA000E2F7809584238C932BC08B818130A1F445
:101AB000A2E3B0E0E2E3F0E08081482F8A81282FA2
:101AC00030E081E090E0022E02C0880F991F0A9456
:101AD000E2F7842B8C9314C0A2E3B0E0E2E3F0E0E1
:101AE0008081482F8A81282F30E081E090E0022E0B
:101AF00002C0880F991F0A94E2F7809584238C9383
:101B00000F900F900F900F900F90CF91DF9108954D
:101B1000DF93CF9300D000D00F92CDB7DEB78A838A
:101B20006B8319828B81883008F084C08A8184306D
:101B300008F080C08A81282F30E03D832C834C81BF
:101B40005D814130510579F18C819D818230910513
:101B500034F42C813D812115310569F06BC04C8135
:101B60005D8142305105B9F18C819D8183309105B1
:101B700009F449C05FC0E9E3F0E08081282F30E03C
:101B80008B81882F90E0A90102C0559547958A95D1
:101B9000E2F7CA0181709070882319F081E089838F
:101BA00049C0198247C0E6E3F0E08081282F30E089
:101BB0008B81882F90E0A90102C0559547958A95A1
:101BC000E2F7CA0181709070882319F081E089835F
:101BD00031C019822FC0E3E3F0E08081282F30E08C
:101BE0008B81882F90E0A90102C0559547958A9571
:101BF000E2F7CA0181709070882319F081E089832F
:101C000019C0198217C0E0E3F0E08081282F30E08E
:101C10008B81882F90E0A90102C0559547958A9540
:101C2000E2F7CA0181709070882319F081E08983FE
:101C300001C0198289810F900F900F900F900F9023
:101C4000CF91DF910895DF93CF9300D000D0CDB72F
:101C5000DEB789836A838981843090F58981282F52
:101C600030E03C832B838B819C8181309105D1F0C6
:101C70002B813C81223031052CF48B819C81009793
:101C800061F01EC02B813C812230310581F08B81B7
:101C90009C818330910581F013C0EAE3F0E08A81F2
:101CA00080830EC0E7E3F0E08A81808309C0E4E32B
:101CB000F0E08A81808304C0E1E3F0E08A818083E0
:101CC0000F900F900F900F90CF91DF910895DF93B9
:101CD000CF9300D000D0CDB7DEB789836A838981E6
:101CE000843090F58981282F30E03C832B838B81D1
:101CF0009C8181309105D1F02B813C8122303105CE
:101D00002CF48B819C81009761F01EC02B813C815B
:101D10002230310581F08B819C818330910581F0E7
:101D200013C0EBE3F0E08A8180830EC0E8E3F0E0CB
:101D30008A81808309C0E5E3F0E08A81808304C062
:101D4000E2E3F0E08A8180830F900F900F900F9074
:101D5000CF91DF910895DF93CF9300D000D0CDB71E
:101D6000DEB78A8319828A81843090F58A81282F90
:101D700030E03C832B838B819C8181309105D1F0B5
:101D80002B813C81223031052CF48B819C81009782
:101D900061F01EC02B813C812230310581F08B81A6
:101DA0009C818330910581F013C0E9E3F0E08081EC
:101DB00089830EC0E6E3F0E08081898309C0E3E314
:101DC000F0E08081898304C0E0E3F0E080818983D2
:101DD00089810F900F900F900F90CF91DF91089510
:101DE0001F920F920FB60F9211242F933F934F9390
:101DF0005F936F937F938F939F93AF93BF93EF9373
:101E0000FF93DF93CF93CDB7DEB78091800290919F
:101E10008102009729F0E0918002F09181020995FA
:101E2000CF91DF91FF91EF91BF91AF919F918F91F2
:101E30007F916F915F914F913F912F910F900FBEC6
:101E40000F901F9018951F920F920FB60F921124AA
:101E50002F933F934F935F936F937F938F939F93B2
:101E6000AF93BF93EF93FF93DF93CF93CDB7DEB7DD
:101E70008091800290918102009729F0E091800288
:101E8000F09181020995CF91DF91FF91EF91BF9180
:101E9000AF919F918F917F916F915F914F913F9102
:101EA0002F910F900FBE0F901F901895DF93CF9337
:101EB00000D0CDB7DEB79A838983A3E5B0E0E3E530
:101EC000F0E08081282F2F7BE981FA818381882FA0
:101ED00090E0817090700024969587950794969570
:101EE00087950794982F802D822B8C93A3E5B0E0E3
:101EF000E3E5F0E08081282F277FE981FA81838163
:101F0000882F90E082709070880F991F880F991F1A
:101F1000822B8C93A3E5B0E0E3E5F0E08081982F7D
:101F2000987FE981FA8182818770892B8C93A2E561
:101F3000B0E0E981FA8180818C93E981FA81838123
:101F4000882351F0E981FA818381823029F081E090
:101F500063E041E00E94B20BE981FA81838188232A
:101F600021F1A3E5B0E0E3E5F0E08081282F2F7CAC
:101F7000E981FA818481882F90E083709070829546
:101F80009295907F9827807F9827822B8C93ACE541
:101F9000B0E0E981FA8181818C93A9E5B0E0E9E5BF
:101FA000F0E0808182608C9307C0A9E5B0E0E9E5AC
:101FB000F0E0808181608C930F900F90CF91DF9142
:101FC0000895DF93CF93CDB7DEB7E3E5F0E010825D
:101FD000E2E5F0E01082ECE5F0E01082A9E5B0E087
:101FE000E9E5F0E080818D7F8C93A9E5B0E0E9E53B
:101FF000F0E080818E7F8C93CF91DF910895DF9305
:10200000CF9300D0CDB7DEB79A83898389819A8137
:1020100090938102809380020F900F90CF91DF9177
:102020000895DF93CF9300D000D000D0CDB7DEB7B6
:102030008E838E81482F50E0CA019C01220F331FEE
:10204000C9019695982F882797958795821B930BA2
:10205000840F951F24E630E0B9010E945512CB0190
:102060008E8319828E818A8382E08B8383E08C83C6
:1020700082E08D83CE0101960E94560F81E063E0DD
:1020800041E00E949D0C26960FB6F894DEBF0FBE6D
:10209000CDBFCF91DF9108951F920F920FB60F928F
:1020A00011242F933F934F935F936F937F938F935D
:1020B0009F93AF93BF93EF93FF93DF93CF93CDB7EE
:1020C000DEB78091820290918302009729F0E0911F
:1020D0008202F09183020995CF91DF91FF91EF91F8
:1020E000BF91AF919F918F917F916F915F914F9130
:1020F0003F912F910F900FBE0F901F9018951F9238
:102100000F920FB60F9211242F933F934F935F932B
:102110006F937F938F939F93AF93BF93EF93FF93AF
:10212000DF93CF93CDB7DEB7809182029091830287
:10213000009729F0E0918202F09183020995CF91F6
:10214000DF91FF91EF91BF91AF919F918F917F911F
:102150006F915F914F913F912F910F900FBE0F9014
:102160001F9018951F920F920FB60F9211242F9364
:102170003F934F935F936F937F938F939F93AF930F
:10218000BF93EF93FF93DF93CF93CDB7DEB78091EB
:10219000820290918302009729F0E0918202F091EF
:1021A00083020995CF91DF91FF91EF91BF91AF919C
:1021B0009F918F917F916F915F914F913F912F915F
:1021C0000F900FBE0F901F901895DF93CF9300D004
:1021D000CDB7DEB79A838983AFE4B0E0EFE4F0E0F7
:1021E0008081982F9C7FE981FA8185818370892B7A
:1021F0008C93AEE4B0E0EEE4F0E08081282F277EFF
:10220000E981FA818581882F90E08C709070880F29
:10221000991F822B8C93AEE4B0E0EEE4F0E0808175
:10222000982F987FE981FA8184818770892B8C931C
:10223000ACE4B0E0E981FA818081918111969C93B0
:102240008E93E981FA8185818823F9F0E981FA8109
:1022500085818430D1F0E981FA8185818C30A9F0C3
:10226000E981FA818681813031F483E065E041E0E3
:102270000E94B20B0AC0E981FA818681823029F47A
:1022800083E064E041E00E94B20BE981FA8185813C
:10229000882309F459C0E981FA818681813041F5AA
:1022A000AFE4B0E0EFE4F0E08081282F2F73E98104
:1022B000FA818781882F90E000249695879507946E
:1022C000969587950794982F802D822B8C93AAE45E
:1022D000B0E0E981FA818281938111969C938E937B
:1022E000A9E5B0E0E9E5F0E0808180618C9333C03E
:1022F000E981FA818681823071F5AFE4B0E0EFE4E4
:10230000F0E08081282F2F7CE981FA818781882F56
:1023100090E08370907082959295907F9827807F4F
:102320009827822B8C93A8E4B0E0E981FA8182811E
:10233000938111969C938E93A9E5B0E0E9E5F0E0D6
:10234000808188608C9307C0A9E5B0E0E9E5F0E002
:10235000808184608C930F900F90CF91DF910895CE
:10236000DF93CF93CDB7DEB7EFE4F0E01082EEE479
:10237000F0E01082ECE4F0E011821082EAE4F0E098
:1023800011821082E8E4F0E011821082A9E5B0E049
:10239000E9E5F0E080818F7E8C93A9E5B0E0E9E586
:1023A000F0E08081877F8C93A9E5B0E0E9E5F0E07B
:1023B00080818B7F8C93CF91DF910895DF93CF93B2
:1023C00000D0CDB7DEB79A83898389819A819093B3
:1023D0008302809382020F900F90CF91DF91089536
:1023E000DF93CF93CDB7DEB72A970FB6F894DEBF51
:1023F0000FBECDBF9A87898789859A85CC01A0E0D9
:10240000B0E02FEF3FEF40E050E0BC01CD010E9473
:102410003612DC01CB0124E630E040E050E0BC01A4
:10242000CD010E946912DA01C9019A87898788E083
:10243000FE013196DF01982F1D929A95E9F7898563
:102440009A859C838B8382E08D838FE08E8382E0EC
:102450008F83CE0101960E94E5102A960FB6F8945C
:10246000DEBF0FBECDBFCF91DF910895629FD00137
:10247000739FF001829FE00DF11D649FE00DF11D3F
:10248000929FF00D839FF00D749FF00D659FF00DEE
:102490009927729FB00DE11DF91F639FB00DE11DDB
:1024A000F91FBD01CF0111240895AA1BBB1B51E1E7
:1024B00007C0AA1FBB1FA617B70710F0A61BB70BB4
:1024C000881F991F5A95A9F780959095BC01CD0159
:1024D0000895A1E21A2EAA1BBB1BFD010DC0AA1F65
:1024E000BB1FEE1FFF1FA217B307E407F50720F07D
:1024F000A21BB30BE40BF50B661F771F881F991FF8
:102500001A9469F760957095809590959B01AC0140
:10251000BD01CF0108952F923F924F925F926F922B
:102520007F928F929F92AF92BF92CF92DF92EF9263
:10253000FF920F931F93CF93DF93CDB7DEB7CA1BE4
:10254000DB0B0FB6F894DEBF0FBECDBF09942A880F
:10255000398848885F846E847D848C849B84AA84B7
:10256000B984C884DF80EE80FD800C811B81AA8144
:10257000B981CE0FD11D0FB6F894DEBF0FBECDBF0F
:10258000ED010895A0E0B0E0E8ECF2E10C949B12BC
:10259000FE0135966191719180918602909187023A
:1025A000AF010E940C132096E2E00C94B7120F9337
:1025B0001F93CF93DF938C01E0918602F091870205
:1025C000838181FF21C0C0E0D0E00DC0E091860290
:1025D000F091870220853185BF01F9010995892B8A
:1025E00011F0CFEFDFEFF80181918F01882371F7B0
:1025F000E0918602F0918702208531858AE0BF0153
:10260000F9010995892B11F0CFEFDFEFCE01DF91B2
:10261000CF911F910F910895ABE0B0E0E2E1F3E1BB
:102620000C948B123C012B015A01FC01178216827B
:10263000838181FD03C06FEF7FEFC6C19AE0892ED1
:102640001E010894211C311CF3012381F20123FD9A
:10265000859123FF81912F01882309F4B2C185322E
:1026600039F423FD859123FF81912F01853229F4CF
:1026700090E0B3010E94FF14E7CF982FFF24EE24CF
:102680009924FFE1FF15D0F09B3269F09C3228F4C9
:10269000903259F0933291F40EC09D3249F090334C
:1026A00069F441E024C052E0F52A84E0F82A28C009
:1026B00098E0F92A25C0E0E1FE2A22C0F7FC29C0F3
:1026C000892F80538A3070F4F6FE05C0989C902CB8
:1026D0001124980E15C0E89CE02C1124E80EF0E2BD
:1026E000FF2A0EC09E3229F4F6FC6BC140E4F42AA6
:1026F00007C09C3619F450E8F52A02C0983649F410
:10270000F20123FD959123FF91912F01992309F067
:10271000B8CF892F8554833018F08052833038F435
:1027200044E050E0A40EB51E5FE359830FC093361A
:1027300031F0933779F0933509F056C020C0F50198
:102740008081898342E050E0A40EB51E610101E062
:1027500010E012C0F501C080D180F6FC03C06FEF1D
:102760007FEF02C0692D70E042E050E0A40EB51E7C
:10277000C6010E94F4148C015FE7F52214C0F50134
:10278000C080D180F6FC03C06FEF7FEF02C0692DDF
:1027900070E042E050E0A40EB51EC6010E94E914AC
:1027A0008C0150E8F52AF3FE07C01AC080E290E0E1
:1027B000B3010E94FF14EA948E2D90E008171907C8
:1027C000A8F30EC0F601F7FC8591F7FE81916F0129
:1027D00090E0B3010E94FF14E110EA940150104010
:1027E0000115110579F7EAC0943611F0993669F5AB
:1027F000F7FE08C0F501208131814281538184E0D8
:1028000090E00AC0F501808191819C01442737FD49
:102810004095542F82E090E0A80EB91E9FE6F92261
:1028200057FF09C050954095309521953F4F4F4F28
:102830005F4FE0E8FE2ACA01B901A1012AE030E0B9
:102840000E942B15D82ED21840C0953729F41F2D81
:102850001F7E2AE030E01DC01F2D197F9F3661F0DA
:10286000903720F4983509F0ACC00FC0903739F09C
:10287000983709F0A6C004C028E030E00AC0106113
:1028800014FD146020E130E004C014FD166020E166
:1028900032E017FF08C0F501608171818281938168
:1028A00044E050E008C0F50180819181BC0180E0E6
:1028B00090E042E050E0A40EB51EA1010E942B154D
:1028C000D82ED2188FE7F82EF122F6FE0BC05EEF5D
:1028D000F522D91438F4F4FE07C0F2FC05C08FEEDF
:1028E000F82202C01D2D01C0192DF4FE0DC0FE01FD
:1028F000ED0DF11D8081803319F499EEF92208C0A5
:102900001F5FF2FE05C003C08F2D867809F01F5FA0
:102910000F2DF3FC14C0F0FE0FC01E1510F09D2CFF
:102920000BC09D2C9E0C911A1E2D06C080E290E0DB
:10293000B3010E94FF141F5F1E15C0F304C01E15D3
:1029400010F4E11A01C0EE2404FF0FC080E390E010
:10295000B3010E94FF1402FF1DC001FD03C088E700
:1029600090E00EC088E590E00BC0802F867891F053
:1029700001FF02C08BE201C080E2F7FC8DE290E033
:10298000B3010E94FF1406C080E390E0B3010E94EF
:10299000FF149A94D914C0F3DA94F101ED0DF11DEE
:1029A000808190E0B3010E94FF14DD20A9F706C0EA
:1029B00080E290E0B3010E94FF14EA94EE20C1F798
:1029C00043CEF30166817781CB012B96E2E10C9433
:1029D000A712FC010590615070400110D8F7809556
:1029E00090958E0F9F1F0895FC01615070400190DB
:1029F0000110D8F7809590958E0F9F1F08950F9323
:102A00001F93CF93DF938C01EB018B8181FF1BC060
:102A100082FF0DC02E813F818C819D81281739074F
:102A200064F4E881F9810193F983E88306C0E885BD
:102A3000F985802F0995892B31F48E819F8101962C
:102A40009F838E8302C00FEF1FEFC801DF91CF91EC
:102A50001F910F910895FA01AA27283051F12031D2
:102A600081F1E8946F936E7F6E5F7F4F8F4F9F4F22
:102A7000AF4FB1E03ED0B4E03CD0670F781F891F64
:102A80009A1FA11D680F791F8A1F911DA11D6A0F32
:102A9000711D811D911DA11D20D009F468943F91E5
:102AA0002AE0269F11243019305D3193DEF6CF01E4
:102AB0000895462F4770405D4193B3E00FD0C9F7AA
:102AC000F6CF462F4F70405D4A3318F0495D31FD17
:102AD0004052419302D0A9F7EACFB4E0A69597956A
:102AE000879577956795BA95C9F700976105710540
:102AF00008959B01AC010A2E06945795479537958A
:102B00002795BA95C9F7620F731F841F951FA01DE3
:062B10000895F894FFCFC8
:102B160054657374696E67204443204D6F746F72F9
:102B260020436F6E74726F6C3A0052756E6E696EEA
:102B36006720435720617420353025252073706542
:102B460065640A0052756E6E696E672043435720AE
:102B5600617420373525252073706565640A005336
:102B6600746F7070696E67204D6F746F72004D657B
:102B760061737572656420546F727175653A2025AC
:102B86002E3266206B672E636D0A00596F752053CF
:102B9600686F756C64204465637265617365205265
:102BA6006573697374616E636520746F20416C6C24
:102BB6006F77204D6F72652043757272656E740073
:102BC600596F752053686F756C6420496E63726522
:102BD60061736520526573697374616E63652074F1
:102BE6006F204C6F7765722043757272656E740044
:102BF60000000000000000000001020203030303BE
:102C06000404040404040404050505050505050576
:102C16000505050505050505060606060606060656
:102C2600060606060606060606060606060606063E
:102C36000606060606060606070707070707070726
:102C4600070707070707070707070707070707070E
:102C560007070707070707070707070707070707FE
:102C660007070707070707070707070707070707EE
:102C760007070707070707070808080808080808D6
:102C860008080808080808080808080808080808BE
:102C960008080808080808080808080808080808AE
:102CA600080808080808080808080808080808089E
:102CB600080808080808080808080808080808088E
:102CC600080808080808080808080808080808087E
:102CD600080808080808080808080808080808086E
:102CE600080808080808080808080808080808085E
:102CF6000808080808080808000040400AD7A33C4E
:102D060000007A446666A63F00C08844B81E053EA9
:042D1600CDCC4C3F95
:00000001FF
